:10800000F0FE002021840000AB840000AB8400005F
:10801000AB840000AB840000AB84000000000000D3
:108020000000000000000000000000004F4A0100B6
:10803000AB84000000000000C54A0100AB840000D2
:10804000AB840000AB840000AB840000AB84000074
:10805000AB840000AB840000AB840000AB84000064
:10806000AB840000AB840000AB840000AB84000054
:10807000AB840000AB840000AB840000AB84000044
:10840000FFFFFFFFFFFFFFFFFFFFFFFFFEFFFFFF7D
:048410000000000068
:1084200013481449144A4FF0080333B140F8042BA1
:1084300041F8042BA3F10103F7E7EFF3088080F381
:108440000988EFF3148040F0020080F31488BFF332
:108450006F8FDFF82800016841F47001016008485F
:108460004FF00001016000F00DB880F308887047FC
:1084700080E100E080E200E0FFFFFFFF88ED00E028
:1084800034EF00E0C046C04600F002F800F00EF8FD
:108490004EF68851CEF20001086840F47000086082
:1084A0004FF00070E1EE100A7047FEE700F00BF8A5
:1084B000002801D000F00CF80020C046C04600F0B3
:1084C0001BF800F021F880B500F020F8012002BD73
:1084D00010B5074979441831064C7C44163404E041
:1084E0000A68081D511888470146A142F8D110BDFD
:1084F0005C2C0100BC2C010080B5024800F00CF897
:10850000002002BD0C6E010000F056B980B500F0ED
:10851000F6FC00F0D8FE01BDF0B583B00500686838
:108520000F3004092401DFF874020460DFF87002E0
:108530002060DFF8700220604FF4517200212000AB
:1085400001F03CF814F5D4702900302201F050F805
:10855000C4F8AC41D4F8B00100090001C4F8B0017E
:1085600000F0B4F801F069FA0500002D02D02800EF
:1085700000F0A2F8D4F8D001002804D0D4F8D061DB
:10858000D4F8B45117E0D4F8B401D82802D2D820D6
:10859000C4F8B401D4F8B40110F11005280001F0BA
:1085A00042FA0600002E02D1042000F085F80221D4
:1085B000300001F086FA2900300001F076FDA8199C
:1085C000401E00090001E063D825280001F02BFAC5
:1085D0000700002F02D1042000F06EF801213800BE
:1085E00001F06FFAE819401E0009000114F150066D
:1085F000B0F164017161306117F10F0000090001F1
:10860000B06170696849086001F011FE0500002D35
:1086100002D0280000F050F8012114F5EC7001F0B0
:108620006AFE012114F5A67001F065FE01F0FEFE60
:108630000500002D02D0280000F03EF8D4E9BF016B
:108640000A3051F10001C4E9BF010020019000206F
:10865000009001230022E069C16814F5367001F032
:1086600051FC0600002E02D1042000F025F8300055
:1086700001F025FDD4F8B85117E0287DC00713D5C7
:1086800000200190002000900023AA69E069C168E1
:10869000280001F037FC0600002E02D1042000F073
:1086A0000BF8300001F00BFD203528680028E4D1DC
:1086B0000CF0B6F90020FEBD80B501F0A1FF3748EF
:1086C0000068FEE7354909680881704710B53348EE
:1086D000046843F6F93020824FF4D5706082082098
:1086E0002060012060600220E0810F2060810F2067
:1086F000A081D4F8B801002802D10120FFF7DCFFE7
:108700000120C4F8F8020120C4F81C0101F068FD42
:1087100014F15000E061E18A6183E18A8184D4F838
:10872000A811090441F47F4151F0FF01C160032108
:108730008160002114F5A07001F0EAFF002114F51A
:10874000C07001F0E5FF0021D4F8B801002205E077
:10875000C368994200D2C168521C20300368002BC4
:1087600003D04FF6FF739A42F2D3C4F8181114F5F0
:1087700036700E4A0260E02282600D4A02610D4AA4
:108780004260491CC160002114F5907001F0C0FFE7
:108790000120C4F82C0110BD000000000004FF1FE0
:1087A000FC6D0100006E01009C9BFF1F0300008018
:1087B000E06D0100412B01000746384602F004F845
:1087C000FBE750F8041B61B150F8042BD30744BFFA
:1087D000A9F101039A18002342F8043B091FFAD1BA
:1087E000EFE77047DFF88C180978012921D1C0B272
:1087F000002808D1DFF880181E220A70DFF87C18E4
:108800000A220A7007E0DFF870181F220A70DFF8EA
:108810006C1880220A70C0B200280CD1DFF86409FD
:10882000007810F0BF0050F08000DFF85819087091
:1088300009E0012014E0DFF84C09007850F0C00096
:10884000DFF840190870DFF83C0900780006FAD418
:10885000DFF830090078800601D4002000E01B20FA
:10886000704780B501F0B6FFDFF81408FF210170F2
:10887000DFF81008FF210170DFF80C08FF210170FC
:10888000DFF80409007850F08000DFF8FC18087069
:10889000DFF8F808007850F08000DFF8F018087072
:1088A00001BDC0B2002828D1DFF8E408862101709C
:1088B000DFF8E00880210170DFF8DC081A21017080
:1088C000DFF8D8082D210170DFF8D40800210170ED
:1088D000DFF8D00800210170DFF8CC08002101701A
:1088E000DFF8C8084E210170DFF8C4080078C0B274
:1088F00010F00C000C28F7D1FFE77047C0B2002839
:1089000002D0012826D03EE0DFF8840886210170DD
:10891000DFF8800880210170DFF87C089A2101705F
:10892000DFF878082D210170DFF87C080021017044
:10893000DFF878084E210170DFF874080078C0B2C3
:1089400010F00C000828F7D1DFF864080078400622
:10895000FAD518E0DFF8380806210170DFF834088E
:1089600000210170DFF830089A210170DFF82C082F
:108970002D210170DFF838080078C0B210F00C002B
:108980000828F7D1FFE77047C0B2002802D00128BD
:1089900043D085E0DFF81C08007810F0FE00DFF817
:1089A00014180870DFF8F4072D210170DFF8E007D4
:1089B00086210170DFF8DC0780210170DFF8D8071D
:1089C0009A210170DFF8F007007810F01F00DFF83F
:1089D000E8170870DFF8D00700210170DFF8CC0736
:1089E0000E210170DFF8B80700210170DFF8B4072D
:1089F00000210170DFF8B80700788007FAD5DFF8AA
:108A0000B0070078C006FAD4DFF8A4070078C0B237
:108A100010F00C000828F7D142E0DFF89807007842
:108A200010F0FE00DFF88C170870DFF870072D21BA
:108A30000170DFF85C0706210170DFF8580700219C
:108A40000170DFF854079A210170DFF86C07007895
:108A500010F01F00DFF860170870DFF84C070021E6
:108A60000170DFF8480700210170DFF834070021AA
:108A70000170DFF8300700210170DFF8340700785B
:108A80008007FAD5DFF828070078C006FAD4DFF8A7
:108A900020070078C0B210F00C000828F7D1FFE7DB
:108AA0007047C0B201281AD1DFF8EC0646210170E8
:108AB000DFF8E8062F210170DFF8D40606210170E7
:108AC000DFF8D00600210170DFF8E4060078C00668
:108AD000FAD5DFF8DC060078C007FAD5FFE7704763
:108AE000C0B2002802D001283ED07BE0DFF8A80603
:108AF00046210170DFF8A4062D210170DFF8B806C9
:108B0000007810F01F00DFF8B0160870DFF880065C
:108B100086210170DFF87C0680210170DFF8940661
:108B2000007810F0FE00DFF88C160870DFF8780689
:108B300000210170DFF874060E210170DFF8600675
:108B400000210170DFF85C0600210170DFF860068B
:108B50000078C006FAD5DFF858060078C0B210F0E9
:108B60000C000428F7D13DE0DFF82C064621017007
:108B7000DFF828062D210170DFF83C06007810F0A0
:108B80001F00DFF834160870DFF8040606210170B4
:108B9000DFF8000600210170DFF81806007810F0F9
:108BA000FE00DFF810160870DFF8FC0500210170E8
:108BB000DFF8F80500210170DFF8E40500210170FD
:108BC000DFF8E00500210170DFF8E4050078C00659
:108BD000FAD5DFF8DC050078C0B210F00C000428EC
:108BE000F7D1FFE7704770B504000025E4B2002C10
:108BF00002D0012C02D003E0042501E00125FFE7AB
:108C000000F031F80600EDB2F6B20520DFF8AC1541
:108C100000FB06102E5CF6B2002E06D0022E0ED0FF
:108C200008D3042E15D00FD318E02000C0B2FFF7F0
:108C300057FF13E02000C0B2FFF733FF0EE0200023
:108C4000C0B2FFF7A1FE09E02000C0B2FFF756FE58
:108C500004E02000C0B2FFF724FEFFE7EDB2F6B259
:108C6000B542D0D170BDDFF830050078C0B210F049
:108C7000C000002804D0402804D080280BD013E086
:108C8000042012E0DFF814050078800701D40020EA
:108C90000BE0012009E0DFF814050078400601D45C
:108CA000022002E0032000E00020704710B504001D
:108CB000E4B2032C01D302201CE1E4B2002C04D066
:108CC000022C00F0C0805FD30DE1DFF8A80300782C
:108CD000022841D1DFF8D404007810F0DF00DFF87B
:108CE000CC140870DFF8D804DFF8D8140160DFF87E
:108CF000AC040078C0070AD4DFF88804007810F0CC
:108D0000F30050F00200DFF87C14087019E0DFF87F
:108D10008C04007810F0FE00DFF880140870DFF893
:108D20006404007810F0F30050F00200DFF85414EF
:108D30000870DFF86804007850F00100DFF85C1478
:108D400008700020FFF74FFFDFF86004007850F054
:108D50002000DFF858140870DFF86404DFF86814A6
:108D60000160DFF86804006830F4003050F48030AF
:108D7000DFF858140860DFF85804006850F4002049
:108D8000DFF84C140860AEE0DFF8E8020078022853
:108D900041D1DFF81804007810F0DF00DFF80C1480
:108DA0000870DFF81C04DFF81C140160DFF8EC0326
:108DB0000078C0070AD4DFF8CC03007810F0F30085
:108DC00050F00200DFF8BC13087019E0DFF8CC03A4
:108DD000007810F0FE00DFF8C4130870DFF8A40379
:108DE000007810F0F30050F00200DFF898130870DC
:108DF000DFF8A803007850F00100DFF8A013087036
:108E00000020FFF7F0FEDFF8A403007850F0200008
:108E1000DFF898130870DFF8A803DFF8B8130160D3
:108E2000DFF8A803006830F4003050F48030DFF839
:108E30009C130860DFF89803006850F40020DFF806
:108E4000901308604FE0DFF86403007810F0DF0053
:108E5000DFF858130870DFF86803DFF86813016063
:108E6000DFF838030078C0070AD4DFF81803007869
:108E700010F0F30050F00200DFF80813087019E05A
:108E8000DFF81803007810F0FE00DFF81013087008
:108E9000DFF8F002007810F0F30050F00200DFF885
:108EA000E4120870DFF8F402007850F00100DFF8F7
:108EB000EC1208700120FFF796FEDFF804035FF460
:108EC00040310160DFF80403006850F44030DFF8FF
:108ED000FC120860DFF8F802006830F40020DFF8C8
:108EE000F0120860FFE72000C0B201F076FC614894
:108EF0000470002010BD5F48007870470000B6483D
:108F0000006850F00050B4490860B4480068C005DB
:108F100011D4B248006830F47050B0490860AF48CE
:108F2000006850F48070AD490860AC48006830F4C7
:108F30000070AA490860AA484CF220510180A84854
:108F40004DF628110180A7484FF4E9710180A64829
:108F5000006850F4F050A449086040F2FF300078F7
:108F6000C0B2FF2810D0A14840F2FF31097801704B
:108F70009148007810F0E00040F2FE31097811F0DD
:108F80001F0108438C4908708D488F4901608F4844
:108F9000006830F4003050F480308C4908608C4810
:108FA000006850F400208A4908609148006850F039
:108FB00020008F4908608F4800688F4908408D491C
:108FC00008608E4800688C4908408C4908607948E0
:108FD000007810F0FE007749087070482D2101706C
:108FE0006B48862101706B48802101706A489A2184
:108FF00001707148007810F01F006F4908706A48CE
:109000000021017069480E2101706548002101703E
:10901000644800210170664800788007FBD56448E9
:109020000078C006FBD462480078C0B210F00C0093
:109030000828F8D15D484E2101705D480078C0B223
:1090400010F00C000828F8D1594800784006FBD5EC
:1090500051481A21017056480078C0B210F00C0037
:109060000C28F8D15148007850F020004F49087082
:1090700070470000B49BFF1F0A4006400B400640AB
:1090800005C0074006C0074007C0074010B50022D2
:109090005B49252001F0DCFA04004C48006830F4FC
:1090A0000A6050F04000494908605648006830F0B6
:1090B000807050F4E060534908605348007810F025
:1090C000E000514908705148007810F0F8004F490D
:1090D00008704F48007810F0F6004D4908704D4870
:1090E000007810F0DC0050F050004A4908704A48FF
:1090F000007810F0DC0050F0400047490870474805
:10910000006850F0805045490860454800210170D2
:109110004448002101704448002101704348002167
:1091200001704348007810F0410050F001004049C0
:1091300008701548802101701448802101703D4855
:10914000002101703C48282101703C480021017039
:109150003B48002101703B48002101703A48002142
:1091600001703A48002101703948002101703948E6
:109170000068800880003749086001F02FFB10BDAF
:10918000000000000840064008C0074009C0074032
:109190000050064000500E4000400640014006408E
:1091A000104006401140064004400640054006407D
:1091B000064006400C40064003400640344D010086
:1091C000448004400000771300002501048004401F
:1091D00000700440000099993C80044010D0034086
:1091E0000E20054000200540388004400240064023
:1091F0002880044048900440FFF8FFFE4C90044053
:10920000638800001090044005F0074004F0074018
:1092100002D0074000D0074001D00740348004400E
:1092200000C0074001C0074002C0074003C007401C
:1092300004C007400AC0074000E007402DE400E0FA
:109240002EE400E02CE400E03EE400E014E400E062
:1092500015E400E0108004400FB403980499C9039A
:1092600051EA0040059950EA0120069950EA811020
:10927000089950EA4110099950EA0110079950EAFB
:1092800081000A9908430299019A42F821000C983A
:10929000002805D10120029988400099886004E0E7
:1092A0000120029988400099486000984069012196
:1092B000029A914088430B99029A91400843009981
:1092C000486104B0704710B58AB0DFF8C402006886
:1092D00050F4FC40DFF8B812086000240DE03420A0
:1092E000DFF8B01200FB041184B06846342200F0AD
:1092F0007FF90FBCFFF7B0FF641C622CEFD3DFF8DF
:1093000098021F210160DFF894024FF44071016060
:1093100000200AB010BDDFF88822C0B200280AD0B1
:10932000022853D02DD3042800F0948073D305284D
:1093300000F0B580D8E0DFF86C02CB0705D54FF41C
:10934000107343604FF4107383608B0703D50023C1
:10935000436000238360480707D541F234008058FA
:1093600050F4806041F234039850080707D541F269
:109370003400805830F4806041F23401885000207D
:109380007047DFF82402CB0705D54FF45073C36054
:109390004FF4507303618B0703D50023C360002390
:1093A0000361480707D541F23400805850F400604B
:1093B00041F234039850080707D541F23400805831
:1093C00030F4006041F234018850D8E7DFF8DC0166
:1093D000CB0705D54FF4507383604FF45073C360CF
:1093E0008B0703D5002383600023C360480707D59C
:1093F00041F23400805850F4805041F234039850C8
:10940000080707D541F23400805830F4805041F20B
:1094100034018850B3E7DFF89001CB0705D54FF44E
:10942000507303644FF450734364480707D541F207
:109430003400805850F4005041F23403985008072B
:1094400007D541F23400805830F4005041F2340125
:10945000885094E7DFF85001CB0705D54FF45073DF
:1094600083634FF45073C3638B0703D50023836377
:109470000023C363480707D541F22800805850F401
:10948000806041F228039850080707D541F2280070
:10949000805830F4806041F2280188506FE7DFF88F
:1094A0001001CB0705D54FF4507303624FF450738E
:1094B00043628B0703D500230362002343624807FE
:1094C00007D541F22800805850F4006041F228038B
:1094D0009850080707D541F22800805830F4006002
:1094E00041F2280188504AE75FF0FF3048E780B535
:1094F000DFF8C00001F06FF9012802D15FF0FF3002
:1095000008E0DFF8B400006850F00050DFF8A81061
:109510000860002002BDDFF88810002802D0012872
:1095200012D021E0DFF884004FF4087202624FF499
:109530000872426241F23400405850F0400041F25B
:10954000340250500020704717484FF4087282626E
:109550004FF40872C26241F23400405850F080006B
:1095600041F234025050EDE75FF0FF30EBE70328A3
:1095700002D0042805D009E00B484FF44071816403
:1095800004E00B484FF44071C166FFE700207047CC
:10959000388004406C4E0100C8C00440C0C0044084
:1095A000007004400090044000B0044000C004403B
:1095B00000D0044000D003403C80044010B5044675
:1095C00010460A460146204601F0E6F9204610BD45
:1095D00062B38B0708D0521E11F8013B00F8013B23
:1095E00000F024808B07F6D1830740F0208000BF75
:1095F000103A07D330B4B1E83810103AA0E8381068
:10960000F9D230BC530724BFB1E80810A0E8081015
:1096100044BF51F8043B40F8043BD20724BF31F863
:10962000022B20F8022B44BF0B7803707047083AD6
:1096300007D3B1E80810083A40F8043B40F804CBDF
:10964000F7D25307E4E700002DE9F84304000D00CA
:1096500091461E005FF00008D9F80800DFF890146A
:10966000884204D0382000F0E6FB002020E00C34D3
:10967000102C00D2102414F10F000409240100F072
:10968000BFFFD9F8147001E0B846BF68002F09D0B9
:10969000C9F8187000F0C3FF00F0B2FFD9F81870D5
:1096A000002F07D100F0BBFF042000F0C4FB002016
:1096B000BDE8F283D9F81400874200D1B846386873
:1096C000A042E1D3011B102908D3E0190160C0F8C2
:1096D0000490B9688160B8603C6001E00400B8683B
:1096E000D9F814108F4202D1C9F8140001E0C8F86B
:1096F0000800D9F81400C9F81800D9F81400C9F8FE
:109700001C00D9F81400C9F82000D9F80C00C9F8D9
:109710002400D9F80C00C9F82800E8683881002036
:109720007881C7F80490D9F82C00B84201D2C9F862
:109730002C7000F074FF002E06D0B4F10C02002152
:1097400017F10C00FFF73AFF17F10C00B0E7F8B57E
:1097500004000D0016001F000021B868DFF89023F8
:10976000904204D0382000F066FB00201DE00C344D
:10977000102C00D2102414F10F000409240100F071
:109780003FFF786901E001008068002807D0B861D8
:1097900000F045FF00F034FFB869002806D100F062
:1097A0003EFF042000F047FB0020F2BD79698842AB
:1097B00000D101000268B5F10C0110F110039942CB
:1097C000E1D3111863190C3B9942DCD3B5F10C01BC
:1097D000B1EB000C121BB2EB0C03C0F800C0102B55
:1097E00006D362181360576083689360826001E05B
:1097F0001C1982680C608A607A69BA617A69FA61B8
:109800007A693A62FA687A62FA68BA62F2680A8138
:1098100000224A814F60F96A814200D2F86200F06A
:10982000FEFE0698002805D0B4F10C0200212800A5
:10983000FFF7C4FE2800B8E780B5DFF8B812096862
:109840000023D1F81823C969FFF7FEFE02BD80B5D9
:10985000DFF8A022126800230093D2F81833D269EF
:10986000FFF775FF02BDDFF88C020068D0F818031F
:10987000704780B5DFF87C1209680123D1F81823FE
:10988000C969FFF7E1FE02BD38B50400DFF86402E4
:109890000568501800090001206111F10F0000094E
:1098A0000001E060E0622169091A01600021816025
:1098B00044606061A061E061206200F0A1FED5F823
:1098C0000C03002804D1002115F5437000F020FF9F
:1098D000210015F5437000F021FF00F0A0FEDFF835
:1098E0001002A060200032BD38B50C000F30050911
:1098F0002D01302200212800FFF760FE15F1300015
:10990000B4F1300201002800FFF7BEFF280032BD8D
:1099100070B5DFF8E0110968002804D1012000F0DB
:109920008AFA01207EE0B0F10C046568A868DFF8CF
:10993000C021904204D0382000F07DFA382071E038
:109940002089C969C96889B2884209D020894FF63F
:10995000FF71884204D0032000F06DFA032061E01B
:1099600000F04EFE6E6906E0B668EE6100F057FE4C
:1099700000F046FEEE696869002802D068698442FA
:1099800014D26E6920680019B0420BD1206831688A
:1099900008182060B068A0600C2200213000FFF79A
:1099A0000DFE00E0A6606C61002006E0B068844215
:1099B00002D3B0680028D7D10120002825D0206824
:1099C0000019B16888420DD12068B168096808188B
:1099D0002060B0688068A0600C220021B068FFF7AA
:1099E000EDFD01E0B068A06030688019A0420BD1A5
:1099F0003068216808183060A068B0600C2200212F
:109A00002000FFF7DBFD00E0B4606869A8616869C9
:109A1000E86168692862E8686862E868A86200F03E
:109A2000FEFD002070BD80B5324909680023D1F8E1
:109A300018235031FFF708FE02BD80B52D4802689B
:109A400012F551710800C2F818033031D2F8B02174
:109A5000521AFFF719FF002002BDF8B504000D00EF
:109A600024480668002D03D1D6F81873FD6803E07A
:109A70000C3D6F682868451900F0C2FD786901E067
:109A800029684D1939698D4211D22989E26892B24B
:109A90009142F5D100E08068002801D0A842FAD3B5
:109AA000A842EDD000F0BBFD15F10C0008E03F68C6
:109AB000FD68D6F818038742E0D100F0B0FD002021
:109AC000F2BD002803D00C384181012000E00020C5
:109AD00070470C38C9680181704780B5054909682D
:109AE0000123D1F818235031FFF7AEFD02BD00006D
:109AF00070656D6C0004FF1F70B582B00C00110022
:109B00000025DFF8FC231268002C04D5152000F096
:109B100092F9002018E080B2002816D1D2F8A801EE
:109B2000009300230022200000F09DF90400002C87
:109B300009D0E56800F064FD200000F0C0FA00F0F4
:109B40006EFD0AF071FF280076BD80B2FF2804DDAB
:109B5000132000F070F90020F6E780B2D2F8A821B7
:109B60009042DDD0132000F066F90020ECE780B5CC
:109B7000002380B2FFF7C0FF02BD2DE9F843DFF8F4
:109B800080130C68002808D0010CD4F8A82189B2F1
:109B900092B2914201D01220F6E000F023F90500C4
:109BA000002D03D014F15000854201D11220EBE0CA
:109BB00014F5A67000F0DEFB00F022FDA86809286D
:109BC00007D100F02CFD14F5A67000F09AFB0020E0
:109BD000DAE0A868022807D1E069854228D06868E1
:109BE00029680160486023E0A868C00514D5A8680A
:109BF000C0051DD56868296801604860B4F888010F
:109C0000401EA4F88801A86830F48070A860A86895
:109C100050F00300A8600BE0A868800508D56868CC
:109C2000296801604860A86B0089401EA96B088103
:109C3000A868400508D5286CE96B01604860A86BEE
:109C40000089401EA96B08810920A860A06CA84269
:109C500001D10020A06400F0E2FC00260CE014EB2F
:109C60008600D0F83402002805D0280014EB8601C5
:109C7000D1F834128847761C102EF0D3EF68E669CD
:109C800095F8280080061ED400212800FFF7E5FE85
:109C9000804615E041462800FFF7DFFE8146AE42D0
:109CA00004D014F150014046FFF713FFA84506D039
:109CB000D5F88C00804502D04046FFF729FEC84603
:109CC000B8F1000FE6D15FF00040E860B4F8280179
:109CD000012806D10120C4F82C010020C4F830016D
:109CE0000BE0BFB2D4F82C01874206D2BFB2C4F851
:109CF0002C71286F6C38C4F83001286FE96E016050
:109D00004860B4F82801401EA4F8280114F5A67094
:109D100000F0F7FAB54224D100F072FC68682968B7
:109D200001604860280000F06AFE95F8280080066F
:109D300015D4D5F88C00002809D014F15001D5F8BD
:109D40008C00FFF7C6FED5F88C00FFF7E1FD14F19B
:109D500050012800FFF7BDFE2800FFF7D9FD0AF0EB
:109D600061FE280000F04BFE95F8280080060AD41A
:109D7000D5F88C00002803D0D5F88C00FFF7C8FD7B
:109D80002800FFF7C5FD0020BDE8F28380B5002163
:109D9000FFF7F3FE02BD10B559480068C46900F032
:109DA0002FFCA06A50F48050A06200F038FC10BD77
:109DB00010B553480068C46900F022FCA06A30F472
:109DC0008050A0620AF030FE00F029FC10BD4C4823
:109DD0000068018B002902D0406BC06801E0C069B7
:109DE000C06D704770B5040045480568002C01D16E
:109DF000E8691FE0E86D844202D115F1500019E0D6
:109E000000F0FEFBD5F82001B0F16C06B5F8280192
:109E100002E0F16EB1F16C060100481E002906D087
:109E2000F168A142F5D100F0FAFB300002E000F049
:109E3000F6FB002070BD32490A68118B002902D060
:109E4000516BC96801E0D169C96D002801D00029B2
:109E500007D1138B002B02D0526BD06001E0D26986
:109E6000D065080070472DE9F04383B00F0014005F
:109E70001D0023490E68002811D05FF00008B94684
:109E8000D6F8B87100E020373968002902D0396867
:109E90008142F8D13868002805D1002703E0D7F8BF
:109EA00018905FF00108002F04D11020FFF7C3FFC6
:109EB000002012E016F5A67000F05CFA01950094FF
:109EC00043464A46F069C168380000F01BF80400B8
:109ED00016F5A67000F015FA2000BDE8FE8300001C
:109EE00080B507480068C069D0F88410002902D006
:109EF000D0F8840080470020FFF748FF01BD000034
:109F00000004FF1F2DE9F24F84B0804691461C00EB
:109F1000AD480668D6F81801D8F80C10884208D267
:109F200016F53670804504D00E20FFF784FF002020
:109F3000B8E00E9D002D18D0DDF83CA0BAF5CA7F20
:109F400004D80220FFF777FF0020ABE000232A00AF
:109F500002A9504600F0D0F807000298BAEB000AB8
:109F6000002C1BD0BAF1200A18E0D8F808A0BAF1EA
:109F7000D90F01D25FF0D80A1AF10F005FEA101A68
:109F80005FEA0A1A002C02D01AF1200000E05046C5
:109F90000023002202A900F0AFF80700002F04D12F
:109FA0000A20FFF748FF00207CE00320B860D7F8C4
:109FB0008C00002802D0D7F88CB002E0029810EB99
:109FC000070B002C0ED05C461BF1200B20004146F5
:109FD0002022FFF70DFBA046D8F8000050F000400B
:109FE000C8F800005146584600F05FF8D8F80C0059
:109FF0007FF00F01326A01FB0020F861386281892D
:10A00000B984D8F81410B962002D03D0B96A51F0A0
:10A010002001B962CDF804908089009043465246F1
:10A020005946380000F0ECFC002801D1002039E04E
:10A03000C7F86880D8F800007866D8F81C000028B7
:10A0400009D0D7E92923D8F81C000021101859415C
:10A05000C7E9290107E017F1A40016F53F711CC9F3
:10A060001CC00C390C38D6F8F802022803D1B86AA3
:10A0700050F00400B862D6F89C027867D6F8A002C7
:10A08000B867D6F8A402F86704983866002D08D19E
:10A0900039003800FFF71DFD3900D7F88C00FFF7B5
:10A0A00018FD380005B0BDE8F08F8908491C02E0B2
:10A0B000464A0260001D491E0029F9D1704710B4BC
:10A0C00041490968C26953684C6A944200D24A62A5
:10A0D00002218160436019680160186050600021AE
:10A0E000C0F8B0100021C0F8B4100021C0F8B810BA
:10A0F00010BC70474069704770B506001400BC2062
:10A10000314A1568B5F828214FF6FE739A4201DBF3
:10A11000002058E00860002C05D00200002120003B
:10A12000FFF74CFA1FE0FFF7A4FB0400002C04D05B
:10A130003000FFF781FBC4F88C00002C01D1200017
:10A1400041E0D4F88C00002804D12000FFF7E0FBA8
:10A15000002038E024212000FFF7B3FC2521D4F8AB
:10A160008C00FFF7AEFCD5F82C61D5F83011D5F88E
:10A17000A801B6B256EA0040E060002902D115F508
:10A18000907100E06C3114F16C0215F5907000F0E4
:10A19000FBFA20000100C86EB0F16C021000761CC2
:10A1A000B6B2002E00D1012615F590739A4204D064
:10A1B000D26892B2B6B2B242ECD0C5F83011B6B2A3
:10A1C000C5F82C61200070BD0004FF1F6B61747323
:10A1D000C26D002901D0002A00D1C165100070476E
:10A1E0002C48006810F5D4714A69082A03D3072265
:10A1F00007234B6104E0002A02D1012201234B61B5
:10A20000510111F0E001C182002003E02249C02287
:10A210004254401C6A28F9D32049002004E05FF032
:10A22000FF3241F82020401C0428F8D3704770B555
:10A230001848046800202062D4F81801861C3001F8
:10A24000FFF717FB0500002D01D1042021E00521B7
:10A250002800FFF736FC05E0C020A881206AA8602E
:10A26000256210353000461E00280FD02D606D602D
:10A27000EE81D4F8BC0180190728EDD2D4F8BC01D6
:10A280008019400110F0E000A881E7E7206A6062D1
:10A29000002070BD0004FF1F00E400E080E100E04A
:10A2A00070B504001500DFF83C010668A1610021CB
:10A2B00014F1080000F02CFA00F0A2F9002D13D1DF
:10A2C000D6F8400100E0006816F5A071884206D07B
:10A2D000A042F8D100F0A3F94FF482600AE0210017
:10A2E00016F5A07000F01AFADFF8FC00606100F0CB
:10A2F00096F9002070BD80B500230022FFF7D0FF43
:10A3000002BD38B505003748046868693649884297
:10A3100001D01F202DE000F073F9A869002822D495
:10A32000288A00281FD015F1080000F016FA3C38E2
:10A330008168C90510D5416802680A605160B4F8A7
:10A340008811491EA4F88811816831F480718160F8
:10A35000816851F00301816000218163FFF7AFFE46
:10A360000AF062FB02E0A869401CA86100F057F9FE
:10A37000002032BD38B504001A480568288B002833
:10A3800001D00D202CE060691749884201D01F20C0
:10A3900026E000F035F9A069012813DAE86940F2F7
:10A3A0002B41816014F108018163416802680A60F1
:10A3B000516010F13C0114F1080000F0AFF90AF00F
:10A3C00041FB02E0A069401EA06160690649884225
:10A3D00003D000F024F91F2002E000F020F9002053
:10A3E00032BD00000004FF1F6D73776CB0FBF1F00D
:10A3F000401E62490860704780B500F052FB0021A2
:10A40000C0B200F052FBC821FFF7F0FF5C48072103
:10A4100001605C48006850F080505A4908605A4812
:10A42000006850F080405849086001BD10B542F204
:10A430006300FEF747F95FF000510020FFF707FACD
:10A44000FA21002000F037FB002878D14F4800F0B7
:10A450003DFB0F2000F0D9FD00220FF2E5010F2097
:10A4600000F0F6F8002801D1262068E04848494964
:10A4700088420AD247484649474A5118884204D27E
:10A48000FFF7F1F94549086009E0414842490818D9
:10A490004349411A4248FFF727FA4049086000F053
:10A4A00085FEFFF7A9FF012000F038FE002801D04B
:10A4B000262044E000F062FE002801D026203EE085
:10A4C000002000F02BFE002801D0262037E0354880
:10A4D00004683548C4F89801C82000F091FDD4F80C
:10A4E000980100F09EFD00210FF25D0000F092FD4A
:10A4F00000F060FE00F068FE002820D1FEF7F7FFB4
:10A50000002805D1042000F07AFE012000F0F6FFBB
:10A5100026482749016027482549016001F012F8C3
:10A5200001F018F8244802682349244801F058F83B
:10A530002349244801F02EFB01F05EFF002010BDEE
:10A5400080B500F070FC01BD00220C4800680002DC
:10A55000000A401C1C4909680902090A1B4B1B68B8
:10A560005B0104D5184909680902090A020000299B
:10A5700000D10100401A10187047000014E000E0FC
:10A5800010E000E01CED00E020ED00E00000FF1F07
:10A590000000FF1FC09BFF1F00000200F897FF1F75
:10A5A0000000FF1F0004FF1FC0270900202808E04B
:10A5B00000A00FAA202008E0686201005C4E0100A4
:10A5C00054620100644E010018E000E004ED00E078
:10A5D00038B504004B480068C56900F011F8A86858
:10A5E0000B280AD00B20A860AC6341212800FFF79C
:10A5F000EFFD686829680160486000F010F831BD1F
:10A6000040480068C169496D002902D1C18A81F3BF
:10A610001188C169496D491CC06941657047394855
:10A620000068C169496D002911D0C169496D491E91
:10A63000C269516500290AD1018B002904D0406B01
:10A64000806880F3118802E0408B80F311887047A6
:10A65000F8B50C0015002B4909688A6B002A04D153
:10A660001820FFF7E8FB002018E0CA6A904202D3E6
:10A670000A6B824204D21420FFF7DDFB00200DE0BC
:10A68000CA6A801A0C22896B02FB0016FFF7B8FF1A
:10A6900037683460B560FFF7C2FF3800F2BD2DE9BE
:10A6A000F04104000D00A54201D20C2026E015481F
:10A6B00006681548C6F80C011448B062281B10F152
:10A6C00001080C2000FB08F0FFF707FA0700002F35
:10A6D00001D1042012E003213800FFF7F2F9B7633B
:10A6E000F462356304E009483860BC60641C0C37D0
:10A6F0004046B0F101080028F5D10020BDE8F08106
:10A70000000000000004FF1F934B0100D1A50000D2
:10A7100000604060002202814181704738B504002A
:10A720000D00FFF76DFF6089002807D0208961893F
:10A73000884203D3FFF773FF00200DE060680068D4
:10A74000286061680D606168696045602089401C0F
:10A750002081FFF764FF012032BD38B50400FFF708
:10A760004FFF2089002803D1FFF759FF00200AE09E
:10A77000256868682968016048602089401E20813A
:10A78000FFF74DFF280032BD70B504000D00160024
:10A79000002D00D12500FFF733FF6089002807D086
:10A7A00020896189884203D3FFF739FF00200AE03E
:10A7B000286830602E60756046602089401C2081CA
:10A7C000FFF72DFF012070BD01491820ABBEFBE74C
:10A7D0002600020070470020704770474548006817
:10A7E00050F48060434908604348007810F0F3005B
:10A7F00041490870414841210170414800210170E0
:10A800004048002101704048002101703F48032169
:10A8100001703F48002101703E48C02101703E4850
:10A82000002101703D48002101703D482021017048
:10A830003C48202101703C48032101703B48C02165
:10A8400001703B48007850F0880039490870394859
:10A850000021017038480121017038480A21017037
:10A860003748002101703748F72101703648002130
:10A8700001703648002101703548002101703548CB
:10A88000002101703448002101703448002101701A
:10A890003348002101703348002101703248002103
:10A8A00001703248002101703148002101703148A7
:10A8B000002101703048007810F00F002E49087018
:10A8C0002E48DF2101702E480F2101702D4800789D
:10A8D00010F080002B4908702B4800782B4909782C
:10A8E0002B4A002313702B4A00231370024A0C23B7
:10A8F000137070473480044003A0064001A0064056
:10A9000000A0064008A0064009A006400AA0064094
:10A9100002A0064005A006400DA006400EA006407D
:10A9200013A0064015A0064012A0064011A0064044
:10A9300010A006401CA006401DA006401BA006401B
:10A940001EA006401AA0064019A0064018A0064006
:10A9500022A0064023A0064024A0064025A00640D1
:10A9600026A0064027A006402AA006402FA00640A9
:10A9700030A0064031A0064021A006402BA0064092
:10A980002CA0064029A0064004A0064007A00640CF
:10A990000BA0064006A0064062F30F2262F31F429E
:10A9A000401810F0030308D0C91A1FD3DB0748BFB3
:10A9B00000F8012D28BF20F8022D130030B41446F2
:10A9C0001546103928BF20E93C00FAD8490728BFAE
:10A9D00020E90C0048BF40F8042D890028BF20F86A
:10A9E000022D48BF00F8012D30BC7047C91818BFB0
:10A9F00000F8012DCB0728BF00F8012D70477047E4
:10AA0000F8B504001D0001265018401E0009000181
:10AA1000B0F16407206111F10F0000090001A0618D
:10AA20006761642200213800FEF7C8FD0E483864D3
:10AA30000798F862696851F0010179645FF08071EC
:10AA4000B964B86500203860069878607FF002002D
:10AA5000B86294F82800800703D5200000F006F8BB
:10AA600006003000F2BD0000E19E000038B5040091
:10AA70009420FEF7FEFE0500002D05D104212000E4
:10AA8000FFF7A6FB00200BE022212800FFF719F8B2
:10AA900021002800FFF71DF8E068286165630120A8
:10AAA00032BD80B500F052FB02BD80B5C9B2C0B264
:10AAB00000F050FB02BD10B5FFF7F1FD0400002CC3
:10AAC00001D101F0B3FC200010BD0000024909686B
:10AAD000014A10600800704708ED00E038B5DFF863
:10AAE00020160C68002813D0E56915F1440101F027
:10AAF000B3FCFFF785FD15F1440214F5B47115F1AF
:10AB0000440001F0E9FC280000F01EF8FFF787FD83
:10AB100031BD70B50400DFF8E8050568002C03D1ED
:10AB20000C20FFF788F90EE0EE69FFF769FD16F1DA
:10AB3000440215F5B471200001F0CEFC300000F0A5
:10AB400003F8FFF76CFD70BDF8B50400DFF8B00541
:10AB5000006810F5C071B0F88821002A27D0D0F81D
:10AB60008051B0F8882112F1010C01E029002D6814
:10AB7000BCF1010CBCF1000F19D0D4E91167D5E983
:10AB800011239F4204D801D3964201D201220CE046
:10AB9000D5E91167D4E911239F4205D801D3964224
:10ABA00002D25FF0FF3200E00022002ADED46268A9
:10ABB000236813605A60220010F5C070FFF7E4FDAF
:10ABC000A06850F48070A06009F03CFFF1BD70B542
:10ABD0000400DFF82C050668002C0FD0F569FFF79C
:10ABE0000FFDD6E95A232000002110185941C5E96C
:10ABF00011012800FFF7A8FFFFF711FD70BD38B560
:10AC0000DFF8FC140968002803D10C20FFF713F9C2
:10AC10000DE0CC6914F144012CC82CC10C380C395E
:10AC2000FFF7EEFC2000FFF78FFFFFF7F8FC31BDC8
:10AC300070B504000D00002C01D0002D01D10020C2
:10AC4000C0E0A089B0F57A7F0FDB6089A1894FF45D
:10AC50007A7291FBF2F108186081A0894FF47A7141
:10AC600090FBF1F201FB1200A08160893C280DDB12
:10AC7000208961893C2291FBF2F1081820816089CA
:10AC80003C2190FBF1F201FB1200608120893C28FD
:10AC90000DDBE08821893C2291FBF2F10818E0806D
:10ACA00020893C2190FBF1F201FB12002081E08819
:10ACB00018280DDBA088E188182291FBF2F1081812
:10ACC000A080E088182190FBF1F201FB1200E080E7
:10ACD000A088002801D1002074E060880D280DDBD9
:10ACE000208861880C2291FBF2F10818208060888E
:10ACF0000C2190FBF1F201FB12006080208840F2F1
:10AD0000B271884221DA40F2B27020801DE0A18841
:10AD100062880D23DFF8EC6303FB0060105C081A07
:10AD2000A0806088401C608060880D280DDB208832
:10AD300061880C2291FBF2F10818208060880C21B8
:10AD400090FBF1F201FB12006080208800F037F9DF
:10AD500061880D22DFF8AC3302FB0032895CA288E7
:10AD600089B29142D3D32188B1F50C6F01DB002069
:10AD700028E0DFF894132288DFF8903313EB820287
:10AD8000895862883423DFF8886303FB006010EB86
:10AD9000820050F8040C4118A088401EDFF874238C
:10ADA00002FB0011E0884FF4616202FB0011208970
:10ADB0003C2202FB0011608911FA80F12960A08910
:10ADC0006860012070BD10B584B0040000A800F0D8
:10ADD00005F8210000A801F0A3FB1FBD38B5040051
:10ADE000002C1FD0DFF818030568FFF709FC15F5E4
:10ADF000B4700EC80EC40C380C3CD5F8A001002865
:10AE000005D0D5F8A401D5F8A0118847A06022008C
:10AE100015F5BA71200001F05FFBFFF700FC200080
:10AE200001F0CCFB31BD2DE9F843DFF8D402046812
:10AE3000D4E95A01401C51F10001C4E95A01FFF75D
:10AE4000DFFBD4F8A001002806D0D4F8A401D4F880
:10AE5000A0118847C4F8700114F5B47001F0AEFB7E
:10AE6000B4F88851002D41D0D4F880016D1C1FE04A
:10AE7000B4F88811491EA4F88811416802680A6074
:10AE80005160816831F480718160816849050CD519
:10AE9000816831F480618160016CC26B0A6051602D
:10AEA000816B0989491E826B1181FFF708F9300017
:10AEB0006D1E002D1AD00668D0E91123D4E95A89F5
:10AEC0004B4504D801D3424501D201210CE0D4E91D
:10AED0005A23D0E911894B4505D801D3424502D206
:10AEE0005FF0FF3100E000210029C1D5E06990F852
:10AEF0002810490729D5D0E92C23521C53F100030F
:10AF0000C0E92C23816AC9041FD4D0E92923D0E9E0
:10AF10002C67BB4204D801D3B24201D201210CE01C
:10AF2000D0E92C23D0E92967BB4205D801D3B2422E
:10AF300002D25FF0FF3100E00021002905D4416812
:10AF400002680A605160FFF7BAF8FFF768FBD4F8AF
:10AF50000803002802D0D4F808038047D4F840033F
:10AF6000002802D0D4F840038047BDE8F18310B533
:10AF700084B0DFF88C110C684168B1F57A7F0FD38B
:10AF8000016842684FF47A73B2FBF3F25118016022
:10AF900041684FF47A72B1FBF2F302FB1311416086
:10AFA00000A901F025FBFFF72BFB14F5BA7214F58D
:10AFB000B47100A801F030FBFFF731FB1FBD80B278
:10AFC000642190FBF1F201FB120100290CD180B247
:10AFD0004FF4C87190FBF1F201FB1200002801D17F
:10AFE00001200CE000200AE080B2042190FBF1F285
:10AFF00002FB1102002A01D1012000E0002070476D
:10B000003F490968C1F8940170473D490968C1F892
:10B010008C0170473A4A1268C2F8A001C2F8A41124
:10B02000704737490968C1F89C01704770B5040042
:10B030000D00002C01D0002D01D100205EE0206821
:10B040003549884203D26068B0F57A7F01D3002089
:10B0500054E00020288002E02888401C28802068D6
:10B0600029882A4A12EB810149688842F4D2206873
:10B070002988264A52F82110461A288800F2B27010
:10B0800028802888FFF79BFF0121698002E06988FA
:10B09000491C6980698834221D4B02FB003252F83A
:10B0A00021108E42F3D269883422194B02FB003002
:10B0B00010EB810050F8040C361A1648B6FBF0F07D
:10B0C000A880A888134901FB1066A888401CA880A6
:10B0D0004FF46160B6FBF0F0E880E8884FF46161FE
:10B0E00001FB10663C20B6FBF0F0288128893C214A
:10B0F00001FB10666E816068A881012070BD0000B0
:10B100000004FF1FBCAE010038E1FFFF40AF0100AB
:10B11000D8AE010080510100015786F438B5040013
:10B1200000252000C0B2FDF7C1FD0500ADB2002D25
:10B1300002D0280080B208E000212000C0B2FFF752
:10B14000B4FCC821FFF752F9002032BD80B5FDF7ED
:10B15000D2FE02BDC0B203280BD2C9B21E2908D24A
:10B16000C9B2C0B22822044B02FB003050F82100C3
:10B1700000E00020704700003C6E010010B5002484
:10B180000020FDF72FFB0400A4B2002C02D0200009
:10B1900080B20AE00120FDF725FB0400A4B2002CD8
:10B1A00002D0200080B200E0002010BD80B5FDF785
:10B1B0006DFF01BD03480068400840000149086078
:10B1C0000020704700D0004010B5064804680021F8
:10B1D00014F52470FFF79CFA012114F51D70FFF798
:10B1E0008AF810BD0004FF1F4FF47A71484378219C
:10B1F000484301E000BF401E0028FBD1704770B5F6
:10B2000004000025DFF8B462E00720D5FFF7F8F965
:10B21000306950F001003061DFF8A40200210160C4
:10B22000DFF8A00200210160DFF89C02002101602C
:10B23000DFF8980200210160306940084000306169
:10B240005FF0FF30B06001203060FFF7E8F9A00741
:10B2500015D5FFF7D5F9306950F00100306130693C
:10B2600040084000306101203060DFF85C020021BE
:10B270000160DFF8580200210160FFF7D0F9600794
:10B2800029D53069C00703D53069400840003061D6
:10B2900032000FF249015220FFF7DAF9002802D1FB
:10B2A000FEF795FD0500002D15D17069C00602D589
:10B2B0003069C0050AD4306950F4807030617D2057
:10B2C000FFF792FF706950F01000706101220421B5
:10B2D000522001F0C1F9280070BD000038B5DFF838
:10B2E000DC410120616911F0030F1CD0626932F06A
:10B2F000100262615FF0FF32A26001222260626987
:10B3000052F010026261CA0701D5082200E0002253
:10B310008B0701D5042300E000236C4D2D681A43F0
:10B320002A436A4B1A6049072AD5A5686449096807
:10B330008D420CD16548006850F0010063490860F7
:10B34000614800684008400000F093F800205D4923
:10B3500009688D420CD15D48006850F002005B49DD
:10B3600008605948006830F0020000F082F80020C0
:10B37000012805D1544800688008800000F079F861
:10B3800053480068002809D0504800684E490968B1
:10B39000084203D020004E490968884731BD00218A
:10B3A00080B2042290FBF2F303FB1203002B13D1B3
:10B3B000012180B2642290FBF2F302FB1302002A07
:10B3C00000D1002180B24FF4C87290FBF2F302FB6F
:10B3D0001300002800D101210800704770B5040057
:10B3E00000252088A0F2B27040F26D11484305009C
:10B3F00040F2B27605E0300080B2FFF7D0FF451989
:10B40000761C20888642F6D301260DE0314810EBE9
:10B41000460030F8020C15FA80F5022E03D1208880
:10B42000FFF7BDFF4519761C60888642EED3A088E1
:10B43000401E45192848E1884FF46162514300FBE2
:10B44000051021893C2202FB0100618910FA81F07C
:10B4500070BD1A494A6932F010024A6100680860FA
:10B46000486950F01000486170471449096801604C
:10B470007047124910F00302002A03D15FF0FF3039
:10B48000886019E0032A0FD10A680E480068801A04
:10B490000B4B1B689A1A904202D30948006801E0DE
:10B4A00008480068886007E0C00702D504480068C3
:10B4B00001E00448006888607047000000D0034045
:10B4C000FC97FF1F0098FF1F0498FF1F0898FF1F9D
:10B4D0000C98FF1FB06201008051010000B583B0DD
:10B4E000006800900020019000A8FFF79FFD07BDB5
:10B4F00010B50C00FFF772FF206010BD00B587B0DB
:10B5000001280ED100A8FFF7B0FF03A900A8FFF79C
:10B51000E5FF01A903A8FFF78BFB01A8FFF727FDB3
:10B520000DE001A8FFF74FFC03A901A8FFF77EFD7E
:10B5300000A903A8FFF7DCFF00A8FFF78AFF00209F
:10B5400007B000BD074808490160064800680028A8
:10B55000FBD470470548044901600448006800288E
:10B56000FBD47047002808E003000085002008E0B5
:10B5700010B400230024002917D0002A15D013018D
:10B58000B1FBF3F3002B0BD01C0104FB1211540888
:10B5900014EB4101B1FBF2F4202C01D35B1C00241D
:10B5A000B3F5005F01D316200EE0190A11F01F0158
:10B5B00001704370817A11F0E0018172817A14F098
:10B5C0001F0211438172002010BC7047C17851F0F6
:10B5D0000C01C1707047C17811F0F301C170704760
:10B5E00070B586B004000D0016006868C0B201F0A6
:10B5F00087F8FFF7F0F8002802D05FF0FF3013E083
:10B60000049603950FF2C91002900FF26D1001908D
:10B610000FF2511000900FF239130FF205120FF2D2
:10B620000D01200001F092F806B070BD2DE9F04147
:10B6300006000F0075682800C0B201F061F8040030
:10B64000002C01D12B2068E05820FEF746FA8046F6
:10B65000B8F1000F01D104205FE0C7F80080C8F8FE
:10B660002040404631002022FDF7C2FF0120C8F8EB
:10B670003000D8F8087015263100C9B22800C0B2D1
:10B68000FDF749FE04212800C0B2FDF744FED8F8BA
:10B690000C2039002000FFF76BFF0020A070E0783D
:10B6A00010F0FD00E070A07A10F03F00A0720020C2
:10B6B0002072002060720020A071207CC0F3021074
:10B6C000C0B2002802D10020E07407E00120217CF4
:10B6D000C1F30211491C8840401EE07401206075CE
:10B6E000E07810F0F300E070207C50F088002074C7
:10B6F000607C50F0C0006074F00603D52000FFF7B6
:10B7000065FF02E02000FFF766FF300704D508213F
:10B710002800C0B2FDF7FFFD0020BDE8F081000069
:10B7200070B504000D00042604216068C0B2FDF766
:10B73000F2FD286A0021C170300704D50821606835
:10B74000C0B2FDF7E8FD2800FEF7E2F8002070BD6A
:10B75000016A0A799206FCD5826B521C8263C87911
:10B7600070470000026A13791B06FCD5D171C16BCA
:10B77000491CC16370470000016A0A79130702D5AA
:10B78000C36C5B1CC364D30702D5436C5B1C43646E
:10B79000530702D5436D5B1C4365930702D5836C49
:10B7A0005B1C83640A2002420BD0C8798A7CD207D2
:10B7B00007D5487C50F040004874887C50F0010068
:10B7C0008874887C400601D4012000E00020704786
:10B7D00070B506001400356AC91E00F0628140F69B
:10B7E000FF40091A00F02981491E6CD0491E6DD016
:10B7F000491E76D0491E00F08D80891F2CD0491E2D
:10B8000018D0491E00F05E81491E00F05181491E8A
:10B8100000F0AB80491E00F09C80091F00F08B8077
:10B82000491E00F08F80491E00F02781491E00F05C
:10B83000318181E10820A978C9060AD596F830102F
:10B84000C90706D5A978890702D5A97A890600D53E
:10B85000401C2060002070BD2068082804D02068AB
:10B86000092801D00C20F6E72068082814D196F8A2
:10B870003000C0070AD5A87A10F0DF00A872A878B7
:10B88000800704D5A87850F01000A870E2E7A878E7
:10B8900010F0EF00A870F9E796F83000C00710D557
:10B8A000A87850F01000A870A878800704D5A87A6E
:10B8B00050F02000A872E9E7A87A10F0DF00A87223
:10B8C000E4E71620C7E7F0682060C3E7B0682268A5
:10B8D00001002800FFF74CFE0028BCD12068F06072
:10B8E000B8E7706B2060241DB06B2060241DF06BE6
:10B8F0002060241D306C2060241D706C2060241D8D
:10B90000B06C2060241DF06C2060241D306D206020
:10B91000241D9FE7002070630020B0630020F063C7
:10B9200000203064002070640020B0640020F064C7
:10B93000002030658EE72879C0F3C01010F00100B8
:10B94000206087E72879C0F3401010F001002060E4
:10B9500080E70120A978890705D5A878C00701D517
:10B96000022000E00320206074E72068012804D052
:10B9700061D3032838D014D35DE0A87880070FD5B1
:10B98000A87810F0FC00A870A87A800604D5A87AE0
:10B9900010F0DF00A87203E0A87810F0EF00A870A4
:10B9A00058E796F83000C00701D4162053E7A8786E
:10B9B000800704D5A87850F00100A87013E0A8789B
:10B9C00050F00300A870A878C00604D5A87A50F0FB
:10B9D0002000A87207E0A87A10F0DF00A872A8780B
:10B9E00050F01000A870DBE796F83000C00701D4D3
:10B9F000162030E7A878800704D5A87810F0FE005C
:10BA0000A87017E0A87850F00200A870A87810F08D
:10BA1000FE00A870A878C00604D5A87A50F02000CF
:10BA2000A87207E0A87A10F0DF00A872A87850F09A
:10BA30001000A870B4E70C200DE7207880060BD525
:10BA40007068FDF794FD687B10F0F6006873687B02
:10BA500050F0020068730FE02078000708D5687B7B
:10BA600010F0FD006873687B50F00900687303E014
:10BA7000687B10F0F4006873ECE62068012804D1BC
:10BA8000E87810F0FB00E87003E0E87850F004007C
:10BA9000E870DFE62879002801D1012000E00020CD
:10BAA000D8E6A87C0006FCD528794006FCD5D1E66E
:10BAB00096F83000C00702D50120206001E0032085
:10BAC0002060C7E62068012814D196F83000C0072E
:10BAD0000FD4A87A10F0DF00A872A87810F0EF0059
:10BAE000A870A87910F0BF00A871306B50F0010069
:10BAF0003063AFE6206803281CD196F83000C007F9
:10BB0000F7D5A878C00602D4A878800701D51620FA
:10BB1000A1E6A87A10F0DF00A872A87850F0100013
:10BB2000A870A87950F04000A871306B4008400020
:10BB30003063DEE70C208EE640F609208BE600003D
:10BB4000F0B4002600225FF0FF35002317E0DFF895
:10BB5000907457F82370DFF88CC45CF824C00CFB99
:10BB600007F74F433F1A002F00D57F42AF4202D262
:10BB70003D001E002200641C402CE8D35B1C032BFC
:10BB800001D20024F8E7B001C0B212F03F0108432F
:10BB9000F0BC70473EB504000D00287801F06AF84B
:10BBA000FEF719FE002802D04FF420600FE0029546
:10BBB0000FF2191001900FF2BD4000900FF22D43CB
:10BBC0000FF2D1020FF20901200001F063F83EBD2F
:10BBD000F8B504000F00207801F04CF80500002DA6
:10BBE00002D14AF6021054E05C20FDF776FF060011
:10BBF000002E01D104204CE040F20B413000FDF753
:10BC000060FF2078FDF787FC3E60300021001422A1
:10BC1000FDF7EEFC75610020B0610020F0610020AE
:10BC20003062607886F82400002086F82500002025
:10BC300086F82600002086F827000020B062002049
:10BC4000F06200203063002070630020B0630020A9
:10BC5000F06300203064002070640020B064002095
:10BC6000F06400203065002070650020B065002081
:10BC7000A8700020E870A078400028706168DFF8A4
:10BC80006803FFF75DFF6870A87850F08000A87027
:10BC90000020F2BD10B50400002901D0002C02D113
:10BCA0004AF6031010E04869C178890602D54AF6C1
:10BCB000011009E000218170FF21C170A069FDF72A
:10BCC00027FE0020A061002010BD000070B588B0E4
:10BCD0000300160000245D69C91E36D040F2FE3014
:10BCE000091A00F0F880491E00F00681491E00F094
:10BCF000D380491E00F0DB80491E00F0E380491E1E
:10BD000000F02381491E00F02981491E00F00B81BB
:10BD1000491E00F01181491E00F0AC80491E4BD035
:10BD2000491E66D0491E00F02281491E00F028817C
:10BD3000491E00F03681491E00F0A480491E00F023
:10BD4000A680491E00F03A8146E100208DF80000EF
:10BD500004E09DF80000401C8DF800009DF80000F4
:10BD6000FF28F6D1E8788DF80000A878C00609D53C
:10BD70009DF8000010F0A0002028E6D0D86B196CC8
:10BD80008842E2D1186CD86393F8270080070BD55E
:10BD90009DF80000800607D4002083F827000020CB
:10BDA0009862072083F82500002E04D09DF800003B
:10BDB00010F0010030600FE14AF60114A878800607
:10BDC00016D593F82500022803D1D86B196C884248
:10BDD0000AD093F82500032802D1986A002803D0DE
:10BDE00093F82500072803D1012083F825000024BB
:10BDF000F2E0A87810F0E700A870E87850F01200A0
:10BE0000E87000209862002083F82700002083F863
:10BE10002500186B5863A878800603D428798DF81C
:10BE2000000003E0A87810F0DF00A87000208DF873
:10BE3000000004E09DF80000401C8DF800009DF813
:10BE40000000FF28F6D1E8788DF800000DE09DF89D
:10BE50000000800706D5E87850F00200E8702879E5
:10BE60008DF80000E8788DF800009DF8000080064D
:10BE7000EDD4B1E0002E02D14AF6031401E030689F
:10BE80009862A9E0A87810F07F00A870A4E0A878D4
:10BE900050F08000A8709FE093F82500002802D0A1
:10BEA0004AF6011402E0002083F8240094E093F89D
:10BEB0002500002802D04AF6011402E0012083F890
:10BEC000240089E0002E02D14AF6031402E093F820
:10BED0002400306080E0002E02D14AF603140AE00C
:10BEE000E878800602D54AF6011404E031683E483D
:10BEF000FFF726FE68706FE0002E02D14AF60314A9
:10BF000010E068788009364951F82010687810F000
:10BF10003F00344A52F82000334A00FB01F0B2FBE4
:10BF2000F0F0306058E0002E02D14AF6031402E02F
:10BF3000306883F826004FE0002E02D14AF6031441
:10BF400002E093F82600306046E0002E02D14AF667
:10BF5000031402E03068400028703DE0002E02D15A
:10BF60004AF6031402E028784008306034E0002EDE
:10BF700002D14AF6031402E093F8250030602BE06A
:10BF8000002E02D14AF603140AE001A813F144017D
:10BF90001822FDF72DFB300001A91822FDF728FB20
:10BFA0001AE000205864002098640020D864002023
:10BFB000186500205865002098650DE0002E02D11C
:10BFC0004AF6031407E0E878800602D501203060C5
:10BFD00001E000203060FFE7200008B070BD0000E5
:10BFE000504D01005C4D01000087930338B5846912
:10BFF000606994F8273053F0010384F8273094F8EF
:10C000002530DBB2002B02D0DBB2012B2CD1032573
:10C0100084F8255094F82450002D25D1857855F0CA
:10C0200010058570C57855F00205C570DBB2012B8F
:10C0300004D1837853F00403837003E0837853F0D2
:10C040002003837094F8273053F0020384F82730DC
:10C0500094F826305B0053F001030371E36C5B1C22
:10C06000E364C3789B07FCD513000A00210000F0AD
:10C0700043F832BD38B58469606994F8273013F00D
:10C08000FE0384F8273094F82530DBB2002B02D071
:10C09000DBB2012B2AD1022584F8255094F82450D4
:10C0A000002D23D1857855F010058570C57855F0A1
:10C0B0000205C570DBB2012B04D1837853F0040371
:10C0C000837003E0837853F02003837094F8273063
:10C0D00053F0020384F8273094F826305B00037194
:10C0E000E36C5B1CE364C3789B07FCD513000A0078
:10C0F000210000F001F832BD78B40400002001E016
:10C100000300401C8342C0F07481E578A678B6062F
:10C1100011D4984200F06E8191F82760B6070AD5D5
:10C12000AE0608D4002281F8272000228A62072266
:10C1300081F825205EE1AE07E7D591F8276056F03B
:10C14000020681F82760A678B60640F19480A678AA
:10C15000F60651D5ED070BD5E37853F00203E370F3
:10C16000072381F825308B6D5B1C8B650300C8E7C6
:10C1700091F82550022D12D191F82750ED070CD4DB
:10C180009842BED2E57855F00205E5701578257124
:10C19000521CCD6C6D1CCD64B3E70300B1E791F880
:10C1A0002550032D26D191F82750ED0720D5A578ED
:10C1B00015F0EF05A5708D6A012D04D1A57855F015
:10C1C0000805A57003E0A57815F0F705A570E578DA
:10C1D00055F00205E5708D6A002D04D1072381F822
:10C1E000253003008DE725798DF80050401E88E743
:10C1F000030086E7030084E791F82550032D38D12A
:10C2000091F82750ED0732D58D6A002D2FD0984236
:10C21000BFF477AFE57855F00205E5708D6A6D1EC5
:10C220008D628D6A012D04D1A57855F00805A570A1
:10C2300003E0A57815F0F705A5708D6A002D03D1F0
:10C24000A57855F01005A57025791570521C8D6ADA
:10C25000002D08D1A37813F0EF03A370072381F812
:10C260002530431C18008D6C6D1C8D6449E703005C
:10C2700047E7030045E7EE060AD5E37853F01003DD
:10C28000E370062381F825300B6D5B1C0B65030002
:10C290006E064AD591F82460002E02D14E6D761CB0
:10C2A0004E656D071AD5052581F8255091F8275060
:10C2B000ED0711D49842BFF424AFA57855F01005CE
:10C2C000A570E57855F00205E57015782571521CCA
:10C2D000CD6C6D1CCD6414E7030012E7042581F8D2
:10C2E000255091F82750ED071DD500281BD18D6AE8
:10C2F000002D18D0A57815F0EF05A570E57855F05C
:10C300000205E5708D6A012D04D1A57855F0080568
:10C31000A57003E0A57815F0F705A57025798DF8CF
:10C320000050401EEDE60300EBE6EE063FF5E8AEFA
:10C33000A678F60629D5ED070BD5E37853F002036E
:10C34000E370072381F825308B6D5B1C8B65030040
:10C35000D7E691F82550022D03D091F82550052DF0
:10C3600011D191F82750ED070DD49842BFF4C9AE12
:10C37000E57855F00205E57015782571521CCD6CF5
:10C380006D1CCD64BDE60300BBE691F82550032D7E
:10C3900003D091F82550042D29D191F82750ED07AD
:10C3A00025D58D6A002D22D09842BFF4AAAEE5783B
:10C3B00055F00205E5708D6A6D1E8D628D6A012D46
:10C3C00004D1A57855F00805A57003E0A57815F00F
:10C3D000F705A5708D6A002D02D1072581F825503B
:10C3E00025791570521C8D6C6D1C8D6489E60300D7
:10C3F00087E6180072BC704710B50B480468D4F883
:10C40000C80100280FD0D4F8CC11D4F8C80100F02E
:10C41000F5FCC4F89C02D4F89C02C4F8A002D4F83D
:10C420009C02C4F8A40210BD0004FF1F0748006866
:10C43000C06B80F308880649102003E0054A41F8E4
:10C440002020401CFF28F9D9704700BF0004FF1FBF
:10C450000000FF1F934B010010B50C000021A160EC
:10C460001A490968012907D119490968B0FBF1F097
:10C470000021C4E9000110BD16490968134A126879
:10C48000022A0BD1D1F89411A1FB00014FF47A726A
:10C49000002300F025FDC4E90001ECE74FF47A72B7
:10C4A000D1F89431B2FBF3F2094B1A60084A1268D2
:10C4B000D1F894315A43B2F57A7F03D1034901226E
:10C4C0000A60D1E7014A02231360DBE7A49BFF1F48
:10C4D000A09BFF1F0004FF1FF0B4D0E90045D1E985
:10C4E0000067A4197D41C2E90045806889680B4B4B
:10C4F0001B68D3F89C315C1AA0420AD3D2E90045EC
:10C50000641C55F10005C2E900450818C01A906086
:10C5100001E008189060F0BC704700BF0004FF1FE6
:10C520002DE9F04307000D0023480668D6F8944132
:10C53000D7E900012200002300F0D2FC01290AD330
:10C5400001D8002807D35FF0FF30286040F2E730C1
:10C55000686000202EE0D7E900234FF47A700021B4
:10C56000A0FB028900FB039901FB0299B8684FF414
:10C570007A714843D6F89C11B0FBF1F0002118EB1A
:10C58000000659EB0107300039002200002300F0BB
:10C59000A7FC06000F00300039004FF47A72002328
:10C5A00000F09EFC286028684FF47A7101FB10604F
:10C5B00068600120BDE8F0830004FF1F30B40B4920
:10C5C0000968D1F89C1182688A420DD38268B2FB57
:10C5D000F1F2D0E900450023A4185D41C0E900450F
:10C5E000836801FB1231816030BC70470004FF1F7B
:10C5F00030B589B004000D0004A9206800F0E8FC03
:10C6000000A9606800F0F2FC2A0000A904A8FFF766
:10C6100063FF09B030BD0000F0B4D0E90045D1E9B6
:10C620000067A41BBD41C2E9004580688968884253
:10C630000BD2084B1B68D3F89C311818D2E900457F
:10C64000641E75F10005C2E90045401A9060F0BC17
:10C65000704700000004FF1FF8B5284DB0F110032B
:10C66000082901D30C2025E0FB2822D29C0815EBD9
:10C6700084049E0815EB8605D5F80053FF2613F0B9
:10C680000307FFB2FF00BE40B543490111F0E001CE
:10C6900013F00303DBB2DB0099402943C4F8001315
:10C6A000002A02D000F007F801E000F014F80020A2
:10C6B00000E00C20F2BD11491038FB2809D24209D4
:10C6C000012310F01F0013FA00F041F822000020AF
:10C6D00000E00C20704709491038FB280BD24209B2
:10C6E00011EB8201012210F01F0012FA00F0C1F8D4
:10C6F0008000002000E00C207047000000E100E016
:10C70000C0B2002808D002280AD007D304280BD0D2
:10C7100008D305280AD00BE006480AE0064808E0DE
:10C72000064806E0064804E0064802E0064800E045
:10C730000020704700A0064000B0064000C0064040
:10C7400000D0064000A00E4000B00E402DE9F041A0
:10C7500084B004000E00170098463020FDF7BDF9A4
:10C760000500002D01D1042022E040F2F93128001B
:10C77000FDF7A7F92E606F60C5F808800A98E86099
:10C780000B9828610C9868610D98A8610E98286232
:10C7900002950FF2614001900FF2453000900FF2C8
:10C7A0000D130FF2D9020FF21101200000F05CFC12
:10C7B00004B0BDE8F08100002DE9F04182B0050031
:10C7C0008846170000242868466A706A002806D048
:10C7D000706A401C7062B06AA86020004CE0306A49
:10C7E0001030FDF720F9F062F06A002801D1042032
:10C7F00042E04FF47F71F06AFDF763F9F06A316A45
:10C800000160F06A00214160F06A00218160F06AF5
:10C810000021C160B762AF60424616F11C01B069E9
:10C82000336898470400002C1CD17069002806D09A
:10C83000009700AA40F60251F069736998473800E2
:10C84000C0060FD517F00700002801D00C2409E01E
:10C850007069002806D000AA40F61551F069736986
:10C8600098470400002C04D0F06AFDF751F820002E
:10C8700002E0012070622000BDE8F68138B5002595
:10C880000068446A606A401E606200280CD16068DB
:10C89000002804D0E169A069626890470500E06A59
:10C8A000FDF736F80020E062280032BD2DE9F047A0
:10C8B0000E00140027000068D0F82480D8F82890D3
:10C8C000D8F81CA01BE0EDB2082D0CD15FEA49702E
:10C8D00009D508215046D8F80C2090472021504611
:10C8E000D8F80C2090475FEA497005D52900C9B2F5
:10C8F0005046D8F80C2090473570761C7F1E002FCC
:10C9000000F0EA805FEAC97026D498E0D8F82C00DD
:10C910004068D8F82C10096888421DD2D8F82C003D
:10C92000C068D8F82C10421CCA60D8F82C104018E7
:10C930000574D8F82C00C068D8F82C100968884213
:10C9400003D1D8F82C000021C160D8F82C00406831
:10C95000401CD8F82C104860D8F82C004068D8F853
:10C960002C100968884278D25046D8F810108847B1
:10C97000002872D05046D8F8081088470500EDB25C
:10C98000132DC3D1EDB2112DE6D05046D8F80810C2
:10C9900088470500EDB2112DF4D0D8F82C0040687E
:10C9A000D8F82C1009688842ECD2D8F82C00C0685E
:10C9B000D8F82C10421CCA60D8F82C104018057406
:10C9C000D8F82C00C068D8F82C100968884203D128
:10C9D000D8F82C000021C160D8F82C004068401C19
:10C9E000D8F82C104860CDE75046D8F80810884792
:10C9F0000500D8F82C004068D8F82C100968884247
:10CA00001DD2D8F82C00C068D8F82C10421CCA607F
:10CA1000D8F82C1040180574D8F82C00C068D8F845
:10CA20002C100968884203D1D8F82C000021C1607D
:10CA3000D8F82C004068401CD8F82C104860D8F872
:10CA40002C004068D8F82C100968884205D250465E
:10CA5000D8F8101088470028C6D1D8F82C004068B4
:10CA6000002834D0D8F82C00406800281DD0D8F811
:10CA70002C004068401ED8F82C104860D8F82C00D4
:10CA80008068D8F82C10421C8A60D8F82C10401806
:10CA9000057CD8F82C008068D8F82C1009688842EA
:10CAA00003D1D8F82C00002181605FEA89707FF5FE
:10CAB0001AAFEDB20D2D7FF406AF5FEA497004D5D1
:10CAC0000D215046D8F80C2090470A250BE75FEA65
:10CAD000C9607FF514AFE41B2000BDE8F0870000BB
:10CAE0002DE9F8430C0015006E1C0068476AD7F862
:10CAF0002880D7F81C9004E02178F869FA689047FC
:10CB0000641C761E002E1ED05FEAC8703AD45FEA1D
:10CB1000887006D520780A2803D10D214846FA6886
:10CB200090475FEAC860E7D578690028E4D000AA9A
:10CB300040F61551F8697B6998470028DCD10098C8
:10CB40000028D9D1AD1B2800BDE8F283F96A4968F5
:10CB5000FA6A1268914215D2F96AC968FA6A4B1CDE
:10CB6000D360FA6A89180874F86AC068F96A0968B3
:10CB7000884202D1F86A0021C160F86A4068401C0E
:10CB8000F96A4860F86A4068F96A09688842BED262
:10CB90004846396988470028B9D04846B968884767
:10CBA000C0B21328D2D104E0F96A4968491CFA6A74
:10CBB0005160C0B21128E5D04846B9688847C0B274
:10CBC0001128F6D0F96A4968FA6A12689142F0D2DF
:10CBD000F96AC968FA6A4B1CD360FA6A8918087442
:10CBE000F96AC968FA6A12689142DDD1F96A0022CD
:10CBF000CA60D9E770B5150000240268536A0A00BC
:10CC0000921F09D0D21E012A22D940F6F846921B63
:10CC10000ED0521E0FD023E0D86A4068002802D000
:10CC20000120286003E0D8691969884728601FE05F
:10CC3000986A28601CE02A689A622A6882605869AB
:10CC4000002804D02A00D8695B69984704000FE0E7
:10CC50000F202860002068604C20A860002407E0B6
:10CC60005869002804D02A00D8695B6998470400F5
:10CC7000200070BDC0B2002802D0012802D003E01D
:10CC8000024802E0024800E00020704700600640D1
:10CC9000007006402DE9FF4104000D0016001F0042
:10CCA0002420FCF71AFF8046B8F1000F01D10420C0
:10CCB00027E04FF481614046FCF703FFC8F80050BD
:10CCC000C8F80460C8F808700A98C8F80C000B98F7
:10CCD000C8F810000C98C8F81400CDF80C800FF2BA
:10CCE000290002900FF2E90001900FF2D9000090A4
:10CCF0000FF2C5030FF291020FF23D01200000F088
:10CD0000C1F904B0BDE8F08138B50400656AE8698E
:10CD100000280DD16868002803D0A96968696A688D
:10CD200090472800FCF7F4FD00206062002001E03D
:10CD300040F60A2032BD00002DE9F04105000E004A
:10CD400017005FF000082868446AFDF759FCE069A5
:10CD5000002803D0FDF763FC2C2012E00120E061E5
:10CD6000FDF75DFC2762AF60320014F118016069C5
:10CD7000236898478046B8F1000F01D00020E06199
:10CD80004046BDE8F081000038B500250068446ADF
:10CD9000FDF736FCE069401EE061002807D16068BD
:10CDA000002804D0A1692000626890470500FDF7C3
:10CDB00036FC280032BD000080B50068406A8368F8
:10CDC000984702BD80B50068406AC368984702BDB5
:10CDD00010B5030000201B685B6A092907D11720E2
:10CDE0001060002050604C209060002005E01C691D
:10CDF000002C02D098691B69984710BDF8B5040053
:10CE00000D002548076817F51D70FDF7B3FAD7F830
:10CE1000906200E0366817F52470864211D0B06841
:10CE2000210001E0491C401C0A78002A06D0027843
:10CE3000002A03D00A7803789A42F3D000780028B9
:10CE4000E8D117F51D70FDF75CFA17F524708642DE
:10CE500001D100201EE02020FCF73FFE0700002F3C
:10CE600001D1002016E010213800FCF72AFE3E60B8
:10CE7000F06800280DD02A0021003800F368984798
:10CE8000002806D0FCF7D7FF3800FCF741FD002052
:10CE900000E03800F2BD00BF0004FF1F13F0004C9B
:10CEA00003D55B42524263F100039CEA210C00F07F
:10CEB000178010B5644603D34942404261F1000136
:10CEC00000F00EF8640004D34942404261F10001D1
:10CED000244203D55B42524263F1000310BD0000BF
:10CEE0001B4213D1094236D12AB18446B0FBF2F07D
:10CEF00002FB10C2704700F03BB9FCD300220023B4
:10CF000070470B000200002100207047904271EB37
:10CF1000030CF6D370B5B1FA81F4B3FA83F52C1B88
:10CF2000A340C4F1200532FA05F63343A2405FF076
:10CF30000046E64002E05B085FEA3202841A71EBC9
:10CF4000030524BF204629467641F4D302000B0096
:10CF50003000002170BD012ACFD970B5140C20D04B
:10CF6000B1FA81F4B2FA82F5C4F120046419B4F183
:10CF70002006D6D3B2405FF00044F440002502E022
:10CF800052085FEA3303C61A71EB020E24BF304623
:10CF9000714664416D41F3D302000B00200029006B
:10CFA00070BD0C46B1FBF2F102FB11452D0445EAC0
:10CFB0001045B5FBF2F402FB145580B240EA05457A
:10CFC000B5FBF2F002FB105240EA044070BD0000D5
:10CFD000054A126800238B60D2F89421A2FB00233B
:10CFE000C1E90023704700BF0004FF1F2DE9F04393
:10CFF0000C001C490D68D5F89411A1FB00673000A6
:10D0000039004FF47A720023FFF76AFFC4E9000188
:10D010004FF47A785FF000093000390042464B4601
:10D02000FFF75EFFA8FB002308FB013309FB003379
:10D03000B61A9F41D5F89C010021A0FB062300FBF6
:10D04000073301FB063312F5FA7053F100014FF478
:10D050007A720023FFF744FF06000F00A660BDE8C8
:10D06000F08300BF0004FF1F1FB5089C0394002439
:10D070000294079C0194069C009400F003F804B00D
:10D0800010BD00002DE9F84304000D0016001F003C
:10D0900000213648D0F800802800002802D0300057
:10D0A000002801D10C205EE0002001E0491C401C5A
:10D0B000B0F5806F05D2025D3A2AF7D0025D002AF2
:10D0C000F5D1012901D1012801D10C204BE018F53F
:10D0D0001D70FDF74FF9D8F8909201E0D9F8009053
:10D0E00018F5247081450FD04FF48062D9F80810EC
:10D0F000200000F03EF80028F0D118F51D70FDF773
:10D1000000F94FF420602EE02C20FCF7E6FC81466D
:10D11000B9F1000F05D118F51D70FDF7F2F80420E4
:10D1200021E00F214846FCF7CCFCC9F80840C9F8BB
:10D130000C50C9F81060C9F814700898C9F81800A4
:10D140000998C9F81C000A98C9F820000B98C9F87A
:10D150002400494618F52470FDF7E0FA18F51D7013
:10D16000FDF7CFF80020BDE8F28300BF0004FF1FE9
:10D17000704701E0491C521E72B10B7890F800C054
:10D180009C4505D002D24FF0FF3070470120704718
:10D1900010F8013B002BEDD100207047000000008B
:10D1A00000B502B401464FF00300ABBE02BC00BDA7
:10D1B00000B502B401464FF00400ABBE02BC00BD96
:10D1C00000B54FF000014FF00700ABBE00BD0000FE
:10D1D000401E00BF00BF00BF0028F9DC00BF00BF39
:10D1E00000BF00BF7047000038B505462DED028B2B
:10D1F0006868C0F30A5040F2FF7143EC182B884274
:10D2000006D0012806DA284600F0EEF8012801DBF6
:10D21000002406E06A6840F2FE3161F31E526A6043
:10D22000441AD5E9000153EC182B00F0FFF8C5E9CA
:10D230000001BDEC028B21B22846BDE8344000F06D
:10D24000C7B90000F8B52DED028B140003B482B00D
:10D250001F4600F09280DDE902230020002100F04B
:10D2600041FA00F08A809FED488B002C42D5644241
:10D270000FF22C1508260CE0E00707D5D5E90001D0
:10D2800053EC182B00F0D2F841EC180B6408083569
:10D29000761E002C18BF002EEED102A900A800F0C7
:10D2A00031FADDE9020153EC182B00F057FACDE911
:10D2B0000201BDF9001002A800F08AF905004FD55F
:10D2C000002C4FD0002C4BD002A900A800F01AFA75
:10D2D000DDE902012E4A2F4B00F0A8F8CDE902014A
:10D2E000BDF9001002A800F073F9050048BF641EE4
:10D2F000E8D435E0012C33DB0FF2A4050826E00763
:10D3000007D5D5E9000153EC182B00F08FF841EC5C
:10D31000180B64100835761E012C01DB002EEED1AF
:10D3200053EC182B02A8FFF75FFF050018D5012C5E
:10D3300018DB00E0641E012C12DB02A900A800F03B
:10D34000E1F9DDE90201144A144B00F06FF8CDE970
:10D350000201BDF9001002A800F03AF90500E9D475
:10D360002DB20DB1012D08D100F01CFB222101606E
:10D370001FB1386840F001003860DDE9020104B0F7
:10D38000BDEC028BF4BD0000000000000000F03F87
:10D39000436FAC642806C80A3CBF737FDD4F157528
:10D3A0000000000000002440000000000000594080
:10D3B000000000000088C3400000000084D79741AF
:10D3C0000080E03779C34143176E05B5B5B8934681
:10D3D000F5F93FE9034F384D321D30F94877825A4D
:10D3E0003CBF737FDD4F157530B4436803F00042D6
:10D3F00001211B031B0B436004BF0368002B08D1F2
:10D400000DE00368DD0F45EA440444605B000360FF
:10D41000491E4468E302F4D523031B0B43604368B1
:10D420001A434260084630BC70470000B0B581EA3C
:10D43000030C0CF0004C40F2FF7515EA11541DBFAF
:10D4400015EA1357AC42AF4239E0E41923EA4553D9
:10D4500043F48013C90241F0004141EA505EC70223
:10D460001100A7FB020200284FF00000EEFB012094
:10D470004FF00001E3FB072118BF42F00102401802
:10D4800000214941E3FB0E01A4F580640F0302D2A1
:10D4900052004041494154F101046CDD470872F1EA
:10D4A000004250F1000051EB0451A1F580115CBF26
:10D4B00041EA0C01B0BD4CEA05510020B0BD05EABF
:10D4C0001357AC4214BFAF4241E050EA410E1CBFBB
:10D4D00052EA430E02E061460020B0BD24423C44C3
:10D4E0001BD15FEA070EF6D0090302BF01460020F8
:10D4F000AEF1140EB1FA81F7AEEB070401FA07FEA4
:10D500000C37C7F1200100FA07F7C8404EEA000EB9
:10D5100023EA455343F48013A2E733F00043B3FA00
:10D5200083F704BFB2FA82FE77440B3FE41BB7F1E6
:10D53000200E2FBF02FA0EF3BB40C7F1200E22FAD5
:10D540000EFE38BF43EA0E03BA40641C82E750EA7D
:10D55000410E14BF52EA430E6FF000014FF4001762
:10D5600017EB430F8ABF194617EB410FB5E74CEA9B
:10D5700005510020B0BDD4F10104B4F120070FDA49
:10D58000C4F12007520828BF42F0010210FA07F543
:10D5900001FA07F7E1BF2A43E0403843E1400FE0DA
:10D5A000352C98DCC7F1200452EA400220FA07F239
:10D5B00018BF42F0010231FA07F0A1400A430021EE
:10D5C00072F1004250F1000051EB0C01B0BD0000BF
:10D5D00070B504460D466068C0F30A5040F2FF7112
:10D5E000884207D16068000304BF2068002817D074
:10D5F000022070BD20B92046FFF7F6FE012867DA49
:10D60000012D0FDB40F2FF71091A8D420AD36068C9
:10D6100000284CBF9FED2F0B9FED300B84ED000BCE
:10D62000012070BD4142A942616806DA6FF31E51C4
:10D63000401941EA0050606041E0401E63680122E9
:10D64000451962F31F5305F1350001F00041636095
:10D65000352803D361600020206070BD002215F1E1
:10D660001F0F04DA226823600020203560606842C2
:10D6700013D0521E25689241C0F12003D2439D4031
:10D6800045EAD27225686668C54006FA03F32B4363
:10D690002360636823FA00F060606068084360609C
:10D6A000B2F1004F03D80DD12078C0070AD5206809
:10D6B000401C2060206828B96068401C60604FF002
:10D6C000FF3070BD6068884204BF20680028F6D132
:10D6D000002070BD000000000000F0FF000000000E
:10D6E0000000F07F90420CD141EA030C50EA4C0C50
:10D6F00007D0994205D14FF4001C1CEB410F38BFF5
:10D700008942704738B50C4605466068C0F30A5038
:10D7100040F2FF7188420BD100202880606800032E
:10D7200004BF2068002801D0022032BD012032BD94
:10D73000012804DA2046FFF757FE01280ADA62685A
:10D7400040F2FE3161F31E526260401A28804FF0B1
:10D75000FF3032BD0020288032BD0000F0B540F21D
:10D76000FF7581EA030C0CF0004C15EA11541DBF43
:10D7700015EA1357AC42AF42E5E0BC41C1F31301D7
:10D78000C3F31303801A994143F4801304D2641E37
:10D790004000494180185941C90241EA5051B1FB4A
:10D7A000F3F603FB1611A2FB0675D7EBC020A941C7
:10D7B00002D2761E80185941C90241EA5051B1FB8C
:10D7C000F3FE03FB1E11A2FB0E75D7EBC020A9418F
:10D7D00003D2AEF1010E80185941890241EA9051FD
:10D7E000760546EA8E2EB1FBF3F603FB1611A2FB7B
:10D7F0000675D7EB8020A94102D2761E80185941C8
:10D80000C90241EA50514EEA060EB1FBF3F603FBA2
:10D810001611A2FB0675D7EBC020A94102D2761ED5
:10D8200080185941C90241EA5051B1FBF3F703FB9B
:10D830001711A2FB0735D3EBC020A94167F1000700
:10D840000CBF004247F0010766F3D5274FEA1E31AF
:10D85000B80814F5806412DDBD0775F1004250EB85
:10D860000E5051EB045111F5801F5CBF41EA0C01D1
:10D87000F0BD4CF07F6141F0E0410020F0BDBD07FC
:10D880006D0840EA0E5041F48011D4F10104B4F166
:10D8900020060ADAC4F120060200E04001FA06F38D
:10D8A000E1401843B24015430EE0342C13DCC6F1BE
:10D8B000200445EA40056D0820FA06F2154321FAD6
:10D8C00006F0A1400D43002175F1004250F1000027
:10D8D00051EB0C01F0BD00205FEA0C01F0BDCFB9A7
:10D8E00092185B41B3FA83F704BFB2FA82F6BF190C
:10D8F0000B3FB7F120062FBF02FA06F3BB40C7F17A
:10D90000200622FA06F638BF3343BA401CB1E419A8
:10D91000641E33E77F4231F00041B1FA81F404BF65
:10D92000B0FA80F6A4190B3CB4F120062FBF00FA20
:10D9300006F1A140C4F1200620FA06F638BF3143B3
:10D94000A0403C1B1AE7AC421ABF05EA1357AF428E
:10D9500012E050EA41061CBF52EA4306BFE750EA14
:10D960004107304661461CBF41EA0551F0BD52EA0D
:10D97000430C08BFC143F0BD00204FF4001616EB66
:10D98000410F98BF16EB430F08BF16EB410F24BFA2
:10D99000C14305E016EB430F0CBF61464CEA05514D
:10D9A000F0BD0000014800F003B800000005FF1FB3
:10D9B0007047000080B50121022000F0DBFADFF89B
:10D9C0002C05006830F0C000DFF820150860DFF893
:10D9D000200500210160DFF81C0500210160DFF84F
:10D9E000180500210160DFF8140500210160DFF84F
:10D9F000FC04006850F08000DFF8F0140860DFF8E5
:10DA00000005DFF8001509680180DFF8F404DFF88D
:10DA1000F81409684180DFF8E804DFF8F0140968B9
:10DA20008180DFF8DC04DFF8E8140968C180DFF8E2
:10DA3000D004DFF8E01409680181DFF8C404DFF8DE
:10DA4000D81409684181DFF8B804DFF8D0140968F8
:10DA50008181DFF8AC04DFF8C8140968C181DFF800
:10DA6000A0040088DFF898140969B0EB2130DFF8D2
:10DA70009014C861DFF888040069DFF88414C9696C
:10DA80000818DFF87C140861DFF874048088DFF878
:10DA900070144969B0EB2130DFF864140862DFF8D4
:10DAA00060044069DFF85814096A0818DFF8501458
:10DAB0004861DFF84C040089DFF844148969B0EB51
:10DAC0002130DFF83C144862DFF834048069DFF865
:10DAD0003014496A0818DFF828148861DFF8200438
:10DAE000806CDFF81C14D1F89410DFF8142412EBCA
:10DAF0004101098D401ADFF808148864DFF800043A
:10DB0000D0F89400DFF8F81311EB4000DFF8F013C1
:10DB100049880185DFF8E803806CDFF8E413D1F869
:10DB20009410DFF8DC2312EB4101098D10FA81F02B
:10DB3000DFF8CC138864DFF8C803D0F89400401CE9
:10DB4000DFF8BC13C1F89400DFF8B403D0F89400F8
:10DB5000102804D3DFF8A8030021C0F89410DFF8E0
:10DB6000A003806C102190FBF1F0DFF89413C1F852
:10DB70009800DFF8B0030068B0F5C86F80F08880C7
:10DB8000DFF8A0030068DFF8A013DFF87423D26980
:10DB900021F81020DFF88C030068DFF88C1311EBFC
:10DBA0004000DFF85C13096AA0F8801CDFF87403FA
:10DBB0000068DFF8741311EB400010F5C850DFF86F
:10DBC0004013496A0180DFF85C030068DFF85813EE
:10DBD00011EB400010F51650DFF82413D1F898101F
:10DBE0000180DFF840030068DFF83C1311EB4000D0
:10DBF00010F54850DFF80813B1F906100180DFF87E
:10DC000024030068DFF8201311EB400010F57A5070
:10DC1000DFF8EC12B1F90C100180DFF8080300689E
:10DC2000DFF8041311EB400010F59640DFF8D01236
:10DC3000B1F90E100180DFF8EC020068DFF8E8129D
:10DC400011EB400010F5AF40DFF8B412B1F9081045
:10DC50000180DFF8D0020068401CDFF8C8120860BD
:10DC6000DFF8C0020068B0F5487F03D1802000F0E3
:10DC7000FDFD0DE0DFF8AC020068B0F5C86F07D11C
:10DC80004FF4807000F0F2FDDFF89802002101608F
:10DC90000021022000F06EF901BDDFF8900200685B
:10DCA00050F08050DFF884120860DFF880020068CE
:10DCB00050F00060DFF874120860DFF8740200684A
:10DCC00050F08050DFF868120860DFF864020068E6
:10DCD00050F00060DFF858120860704744218160FE
:10DCE0000021C16000210162002141620021016523
:10DCF00020214160102101607047202101606521D1
:10DD000081600021C16000210162C7214162416A36
:10DD10000906FCD4C16C826C5118426C5118026C1B
:10DD20005118C26B5118826B5118490889B251F4CD
:10DD30000041C162C16E826E5118426E5118026E6E
:10DD40005118C26D5118826D5118490889B251F4A9
:10DD500000410163406A400601D5FF2000E0002039
:10DD6000704713F0010312F0010211F01F0111EBD3
:10DD7000421140F823107047016A51F040010162DE
:10DD8000704780B5DFF8A801006850F48000DFF824
:10DD9000A0110860DFF89C0100210160DFF8980104
:10DDA00040F203210160DFF8940140F20321016099
:10DDB000DFF88C0140F203210160DFF8880140F2B6
:10DDC00003210160DFF880018A210160DFF87C0116
:10DDD0008A210160DFF878018A210160DFF874018F
:10DDE0008A210160DFF870014FF48A71016000221E
:10DDF000DFF868115820FCF72BFC01220321582082
:10DE0000FEF72AFC394840F6A101016001BD80B54A
:10DE1000FFF743FF5248FFF770FF5249086052482E
:10DE2000FFF76BFF4F4948605048FFF766FF4D49C9
:10DE300088604F48FFF761FF4A49C8604848FFF7CC
:10DE40004DFF4948FFF74AFF4848FFF747FF48485A
:10DE5000FFF744FF0023002210214148FFF781FF14
:10DE60000123002211213E48FFF77BFF00230022FF
